:020000040000FA
:0600000002134102084357
:03002B000210A020
:03003300020BC1FC
:030053000207722F
:03006B00020B760F
:03007B00020BA1D4
:100083000207D401010000000000F8FF07FFFF0092
:10009300000504000000030001FFFFFFFF004510FF
:1000A30014102700000020FD000206FFFF1E206A37
:1000B3001D0000000000000000000000000000FF21
:1000C300140005000104010C000201CE89055688C5
:1000D3000204010C000200000001CC8903040107A3
:1000E300010200000001D4890404010C0002000095
:1000F3000001CA89010400006C14000000E8030039
:1001030000FFFFBD140188130000E8030000640032
:100113006400B801A0BB0D00A0BB0D0002020207E2
:100123000401051E02051E020A0A01010808010353
:10013300B80B02803E0102FEFFE8030A050001FF3F
:10014300FF020A011401E00100B0423BAAB83F8C50
:10015300906339AA0CA33A00941E3C8042633DCFBE
:10016300FE753E1572313FF304353F8096184B0000
:100173000080BF2292D43EDD9B2A3F04000040FF53
:10018300FF7F7FFFFF7FFF010080341872313F0242
:10019300000000050301010F030003000300030037
:1001A3000300030003000300030005000A0014001A
:1001B30028004F009E000000262F000000005C2E48
:1001C30000000000FF000000FF0012136F604612E2
:1001D300138D603DE9687008F618F618F618F622D4
:1001E300748067F7120201090909748067F7221204
:1001F300138D601D12136F7005191919801A1212CD
:100203002D701F121241C37003E667331919194089
:10021300071818182208080874FFF618F618F618B5
:10022300F622121241601712140D702192F012136C
:10023300FB7019501720F014080808090909E7F69C
:100243001819E7F61819E7F61819E7F6221213FB3F
:1002530060E6E869701F0808E62480F608E436F6CD
:1002630018547FB47F0CE654806007F6E418F61840
:10027300F622181822E9C6CC08C6CD08C6CE08C691
:10028300CFC0E0E8C0E0EAC0E0EBC0E009E9F8096C
:10029300E7FA09E7FBE6F918E6F8C3EC98ED99EEFF
:1002A3009AEBC2E7F5F0EFC2E795F0500E600CEB66
:1002B300CFFBEACEFAE9CDF9E8CCF8EAA2E7D2E738
:1002C300FAEB33FB13F5F0EEA2E7D2E7FEEF33FFD1
:1002D300C5F013A2E730E601B313C5F0C3C0E0C015
:1002E300F07F00C39BFB605E9418600F401D146099
:1002F3001AD0E023F9D0E0F80203D38AF0E948608A
:1003030003D2F0E4AFF0FAF9F8803BEB30E40D8967
:10031300F0EA6003D2F0E4AFF0F9CAF8EB30E30D92
:1003230088F0EF6002D2F0AFF0E4CAC9F8EB5407EB
:100333006014FBC3EA13FAE913F9E813F8EF135057
:1003430002D2E0FFDBEDD0E0C0E030E739C3E49F49
:10035300FFF5F0EC98FC42F0ED99FD42F0EE9AFEC9
:1003630042F0D0E0F9D0E0F8E5F0607AE923F9EE65
:1003730020E742D8028067C3EF33FFEC33FCED3351
:10038300FDEE33FE80EAEC28FCED39FDEE3AFED0BB
:10039300E023F9D0E0F84002801BC3EE13FEED1317
:1003A300FDEC13FCEF135002D2E0FF08B800067F08
:1003B3007F74FF802EEF3350178CF020F002601013
:1003C3000CBC000C0DBD00080EBE000408E860DF85
:1003D300E933E813FFEE2313FE4F4D4C8008E95435
:1003E30080FFE4FEFDFCEE33EF33F47004FCFD7E8E
:1003F30080D0E0FBD0E0FAD0E0F8D0E0CFC618CE52
:10040300C618CDC618CCC6F92212138D700418185D
:10041300182212136F700D74FFF61819F61819F6D7
:100423001819F622E7548066F61213FB700F1214A4
:100433000D70F014F608F608F608F680D112140DC4
:10044300700CF608F608768008E6447F80EC1212FA
:1004530044700C12123060BFE65480F6E480BB1285
:100463001230700519191980A5E869700C763F18C8
:10047300768018F618F6E8F922E6CDC0E018ECC04D
:10048300E0E633CD33CDD313F6E719FCE71919337F
:10049300CC33C3947F400ECD9D502408E65480F6A0
:1004A300E418F6800FF4043D14501408E6447FF674
:1004B300187680E418F618F6D0E0FCD0E0FD22CCE4
:1004C300D313CCFD18E4C6CBC0E018E4C6CAC0E021
:1004D3000808ED08C633E613F618E433C675F003CF
:1004E300C3CA97CA09CB97CB199C40047D08802EB9
:1004F300BD00030205B516B6FF050606081618C3A8
:10050300CA33CACB33CB33CA27CA09CB37CB193C3F
:10051300C37D08803E187D0820E75CC633C6CA3316
:10052300CACB33CB33DDF1D5F0EB30E77BCA97CAC7
:1005330009CB974ACB199C406F4B7025E620E021ED
:100543008066187D08C3CA97CA09CB97CB199CD379
:10055300C633C6CA33CACB33CB3350C9DDE7D5F074
:10056300E1D3E4C636C608C636C608C636C608C6CC
:1005730036C61818188031C3CA97CA09CB97CB1946
:100583009CB34097C633C6CA33CACB33CB33DD34AF
:10059300D5F02EC6A2E0C640C8CA27CA09CB371970
:1005A3004A70BECB3CB480B90808E63308E6336032
:1005B3001F181818D0E0FAD0E0FBD0E0FCD0E0FD23
:1005C30022187D08CA27CA09CB37CB193CD38080B0
:1005D30013F618E4B67F11F618B6FF0EF618C60424
:1005E30070D20808768080CAF618F618F680C5001F
:1005F30012138D604F12136F6012E7548066F61268
:10060300122D701112140D703B090909F4F618F636
:1006130018F618F62212124170151213FB08080877
:1006230060EAE6447FF618768018E4F618F622129C
:1006330013FB601612140D7012E4F608F608F608A0
:10064300E65480F609090918181822EAC0E0EBC03D
:10065300E0ECC0E0EDC0E0E687F0A4FBACF008E618
:1006630087F0A42CFCE435F0FA1809E687F0A42CF3
:100673004B60027401CA35F0FCE433FB09E687F0F2
:10068300D2F7A42CCB35F0FC1908E687F0A42BCCC9
:1006930035F0FBE433FD0819E687F0D2E7A42C4AD2
:1006A300CB35F0CD3400FC09E687F0D2E7A42DCC9E
:1006B30035F0FDE433FA0918E687F0D2F7A42CCD20
:1006C30035F0CA3400FC08E687F0D2E7D2F7A42A53
:1006D300CC35F07A7E20E70B0ACB33CBCD33CDCCB0
:1006E30033CC33CB3350147004ED30E00ED2F1E44D
:1006F300CD3DCDCC3CCC3B5005DA05C2F1EB547F6C
:10070300C63308E63392F0FBE73309E733C39A5065
:100713002D2B70190C0D4C4D70151806E608C333BC
:10072300700D20F10AA2F013F6E418800B4024E4C4
:10073300F630F002768018F618F618F68024D33BCC
:1007430014501074FFA2F013F6187680E418F6180C
:10075300F6800FA2F013F618E63303F618ECF6183A
:10076300EDF6D0E0FDD0E0FCD0E0FBD0E0FA22C013
:10077300E074F1120C49A2AFE433F509D2AF85A7B7
:1007830008AFA1EF5508FE74105E60061217B87526
:10079300A1EF74085E60081217BE75A1F78024EFFD
:1007A300A2E092F0E508A2E082F05017906198E091
:1007B300F8900659E0C398A2D265D0335002E8F00E
:1007C30075A1FE752300E509A2E092AF7F02020C3A
:1007D300A8C0E074F2120C49A2AFE433FED2AF908A
:1007E30061A4E0F8759B00E5915854086008759181
:1007F300F712180C8023E59158541060087591EF97
:100803001218128014E591A2E092F0E8A2E082F0BF
:100813005007E0C2E0F01219689061A3E0F8E5E93F
:10082300585404600E12193E75E9FB906193E0A2DF
:10083300E640F2752300EEA2E092AF7F01020CA81E
:10084300C0E074F2120C49A2AFE433FED2AF906160
:10085300A5E0F8E5BF585404600675BFFB12198084
:1008630080D11208BA30F0431208FF803E8A088B09
:10087300098C0A8D0B78081208BA20F01430E72B84
:1008830074FFFCFBFA747F8022E4FCFBFA74808023
:100893001AB48008BC00F2BB00EF800F50EBF9E400
:1008A300C39AFAE49BFBE49CFCE499C6CC18C6CB40
:1008B30018C6CA18C6F922E4C9C608CAC608CBC6F0
:1008C300D3330308CCC63392F0C3947F402E9418DD
:1008D3004019C9B90704CACBCC225025C309CA336E
:1008E300CACB33CBCC33CC33D9F422F4600DC9CC8F
:1008F300C313CB13CBCA13CAD9F6CC22E4FCFBFA3D
:100903002214FCFBFA22C3E498F8E499F912094A89
:100913008026C3E49AFAE49BFBE920E7E912094A3B
:10092300E498F8E499F922C3E498F8E499F91209F0
:100933004AE498F8E499F9C3E49AFAE49BFB22EBBE
:1009430020E7CFE920E7E0B90010BB0008E88AF010
:1009530084F8AAF022E4FBC8FA22EB70227B10C8C9
:1009630033C8C933C9335007C39AC3DBF280069A2D
:1009730050012ADBEAC833F4C8C933F4C9FA227533
:10098300F008E4C833C8C933C933C99AC99B5004B2
:10099300C92AC93BD5F0ECFBC833F4C8E4C9FA2231
:1009A300080808EAC0E0EBC0E086F0E7A4FA1809FB
:1009B30086F0E7A42AFA180986F0E7A42AFA1809A8
:1009C30086F0E7A42AFA1986F0E7A4FBE5F02AFAF1
:1009D300190886F0E7A42BFBE5F03AFA190886F02C
:1009E300E7A42BFBE5F03AFA18180986F0E7A4C54B
:1009F300F02BFBE43AFA1908E7C5F0C6A426F6E59E
:100A0300F03BFBE43AFA1886F0E7A4F6E5F0082693
:100A1300F6E43B08F6E43A08F6D0E0FBD0E0FA222D
:100A2300080808E630E7111211F1120A3B0808081A
:100A3300C64480C618181822181818E9799EC608E3
:100A4300CAC608CBC608CCC6C370207996CACBCC1D
:100A53007019798ECBCC70137986CC700EF9802AFD
:100A6300CA33CACB33CBCC33CC331930E7F2CCCB3C
:100A7300CA3350147004EA30E00DE4CA3ACACB3BDF
:100A8300CBCC3CCC500209C3E913C6CC182313C604
:100A9300CB18C6CA18C6F922E4CFC0E0E4CEC0E042
:100AA300E4CDC0E0E4CCC0E075F020E626F608E62D
:100AB30033F608E633F608E633F6181818EC33FC79
:100AC300ED33FDEE33FEEF33FFC3EC9709ED9709EA
:100AD300EE9709EF97191919400FFFEC97FC09EDF1
:100AE30097FD09EE97FE191906D5F0BFECF709ED4E
:100AF300F709EEF709EFF7191919D0E0FCD0E0FD7B
:100B0300D0E0FED0E0FF222521C582C0E0E52234FB
:100B1300FFC583C0E0E521C3958224F810AF0885A3
:100B230083228582218008858322858221D2AFCECC
:100B3300F0A3E520F0A37808E608F0A3DEFAEFF0CF
:100B4300A3E58124FAF8E608F0A3E608F0A3E60893
:100B5300F0A30808E608F0A3E608F0A315811581C1
:100B6300D0E0FED0E0F8158115811581E8C0E0EEF4
:100B7300C0E022C0E074F2120C49A2AFE433FED20B
:100B8300AFE589A2E0500579011216F2758900C21A
:100B9300C5752300EEA2E092AF7F01020CA8C0E06E
:100BA30074F2120C49A2AFE433FED2AFE58AA2E39A
:100BB300500579021216F2758A00C2EB80D3C0E0A9
:100BC30074F2120C49A2AFE433FED2AFE58BA2E07C
:100BD300500579041216F2758B00C2E880B3121324
:100BE300E6B90003020C33E4900501785A791380C7
:100BF30002F0A3D8FCD9FA78239000867A01BA00D0
:100C0300028007E493A3F608DAF97A5A7B17900077
:100C130087784779028015E493A3AD82AE838A82F5
:100C23008B83F0A3AA82AB838D828E83D8E9D9E725
:100C33007582F87583FD74021210827582BC758308
:100C43002B7400121082C0D02521C582C0E0E5229A
:100C530034FFC583C0E0E521C3958224F310AF08B8
:100C63008583228582218008858322858221D2AFD4
:100C7300C8F0A3E9F0A3EAF0A3EBF0A37908E7092E
:100C8300F0A3D8FAECF0A3EDF0A3EEF0A3EFF0A3FA
:100C9300D0E0F0A3D0E0F0A3D0E0F0A3E520F0A3F0
:100CA300E5F0F0A322852283852182E0C0E0A3E062
:100CB300F9A3E0FAA3E0FBA37808E0F608A3DFFAC0
:100CC300E0FCA3E0FDA3E0FEA3E0FFA3E0C0E0A3FC
:100CD300E0C0E0A3E0F5D0A3E0F520A3E0A3F5F0A6
:100CE30010AF08858322858221800885832285822F
:100CF30021D2AFD082D083D0E0F8D0E03275F010AB
:100D03008E248F25858229858328852182852283C8
:100D1300E0CEA3E0CF852982852883EBC9EAC8ED1D
:100D2300CBECCAC3E833C8E933C9EA33CAEB33CBE4
:100D3300C3EA9EF527EB9FF526B35004AB26AA27FB
:100D4300EC33CCED33CDD5F0DAAE24AF252212133C
:100D53008D601C12136F60171213FB700712140DB2
:100D63007001D322C0D012140D7006D0D0B322C3A9
:100D73002233D0D0501430E0F6C3E7960809E79643
:100D83000809E7960809E796B32220E0D5E6970815
:100D930009E6970809E6970809E697B32212138D27
:100DA300601B12136F60161213FB700712140D6091
:100DB3000CB322C0D012140D7005D0D022C322333D
:100DC300D0D0501330E0EBC3E7960809E796080943
:100DD300E7960809E7962220E0E4E6970809E697F4
:100DE3000809E6970809E69722D083D082ECC0E091
:100DF300EDC0E0E493A3FCE493A3FDED4C600D127E
:100E03000EC4EC24FFFCED34FFFD80EFE493A3FC60
:100E1300E493A3FDED4C600D120F8DEC24FFFCED6C
:100E230034FFFD80EFD0E0FDD0E0FCE493A3C0E00D
:100E3300E493C0E022852283852182E0A3FEE0A320
:100E4300F5207808E0A3F608DFFAE0A3FFE0A3C0EB
:100E5300E0E0A3C0E0E0A3C0E0E0A3C0E0E0A3C003
:100E6300E010AF0885822185832280088582218551
:100E73008322D2AFD083D082021088D083D082E97C
:100E8300C0E0E493A3C386F0C5F095F0F908E493BA
:100E9300A386F0C5F095F0700BE493A3C3994005C6
:100EA300E9048002A3E475F002A42582F582E5F04B
:100EB3003583F583D0E0F9E493A3C0E0E493C0E085
:100EC30022C0E0C3E49396087401939618400FE49C
:100ED3009366700808740193661870007019A3A3D1
:100EE300C3E49396087401939618A3A3400DD0E02E
:100EF300D0E0D0E0020E28A3A3A3A3A3A3D0E022B3
:100F03007404800474028000CCC0E0EDC0E0E521ED
:100F1300C39CCCAD2250011D10AF068C218D2280C5
:100F2300068C218D22D2AF121004D0E0FDD0E0FC5C
:100F33002274028000CCC0E0EDC0E0E521C39CCC6C
:100F4300AD2250011D10AF068C218D2280068C210D
:100F53008D22D2AF120FE2D0E0FDD0E0FC221213BB
:100F63008D602512136F60201213FB700302140DA2
:100F7300080808E76670101819E766700A1819E779
:100F83006670041819E76622F422C0E0C0F088F006
:100F9300E4936670080874019366187000A8F0A3C0
:100FA300A3700BD0F0D0E0D0E0D0E0020E28A3A3D2
:100FB300D0F0D0E022D083D082CCC0E0E493A36011
:100FC300061210251470FAE493A36006121171142B
:100FD30070FAD0E0FCE493A3C0E0E493C0E022CA3B
:100FE300C0E0E493A3C582CCC582C583CDC583F09D
:100FF300A3C582CCC582C583CDC583DAE5D0E0CA5B
:1010030022CAC0E0E0A3C582CCC582C583CDC58317
:10101300F0A3C582CCC582C583CDC583DAE6D0E013
:10102300CA22C0E0E493A3D39C5010E493A3C39CCF
:10103300400AD0E0D0E0D0E0020FD5A3A3A3D0E0D4
:10104300227009080808226016181818C6C333C688
:1010530008C633C608C633C608C633C6D5E0EA2277
:10106300C008C3E096F50808A3E096420808A3E089
:1010730096420808A3E09645087001D3D00822C021
:101083009FF59FE473D09F22D083D082C09FE493C7
:10109300C0E0740193C0E0740293F59F22C0E0C0E6
:1010A300D0E8C0E0A8A8D2AFC2C7752300E8A2E782
:1010B30092AFD0E0F8D0D0D0E0322521F58210AF46
:1010C30008F521400C15228008F52140021522D293
:1010D300AF852283227404800A740380067402801D
:1010E300027401C0E0F4041210BDD0E01213A9226F
:1010F30000C0D0252110AF08F521500C052280082F
:10110300F52150020522D2AFD0D022BB0102E72243
:10111300C082C08389828A83BB0003E08002E49398
:10112300D083D082226016080808C6C313C618C627
:1011330013C618C613C618C613C6D5E0EA2225215E
:10114300F8E43522F9222521FAE43522FB22252170
:10115300FCE43522FD22C3E0C696F608A3E0C6965A
:10116300F608A3E0C696F608A3E0C696F622C0E00A
:10117300E493A36C7009D0E0D0E0D0E0020FD5A3D4
:10118300A3D0E022252110AF08F521400C152280C1
:1011930008F52140021522D2AF22E066701008A3A1
:1011A300E066700A08A3E066700408A3E06622E71D
:1011B3006670100809E766700A0809E76670040894
:1011C30009E76622C3E09608A3E09608A3E0960821
:1011D300A3E096A2D265D03322C3E7960809E79627
:1011E3000809E7960809E796A2D265D033221818B2
:1011F30018E4C396F608E496F608E496F608E4962F
:10120300F622C3E096F008A3E096F008A3E096F078
:1012130008A3E096F022C3E697F60809E697F608D6
:1012230009E697F60809E697F622181818E608461D
:10123300087009E626087005E633F4220822191916
:1012430019E70947097009E727097005E733F4220D
:101253000922C3E493960874019396087402939643
:10126300087403939622E627F60809E637F6080979
:10127300E637F60809E637F622700422600D18C631
:10128300C333C608C633C6D5E0F41822E056F608C1
:10129300A3E056F608A3E056F608A3E056F622E0CC
:1012A30026F608A3E036F608A3E036F608A3E036F0
:1012B300F622E026F008A3E036F008A3E036F008B3
:1012C300A3E036F022E056F008A3E056F008A3E0CE
:1012D30056F008A3E056F022E647F60809E647F67B
:1012E3000809E647F60809E647F622E657F608092D
:1012F300E657F60809E657F60809E657F622600DA1
:1013030008C6A2E713C618C613C6D5E0F322C6F46F
:10131300C608C6F4C608C6F4C608C6F4C622C3E0A7
:101323009608A3E09608A3E09608A3E09622C3E7F5
:10133300960809E7960809E7960809E7962275D003
:101343000075813F75210175220500020BE1600CD8
:1013530008C6C313C618C613C6D5E0F422E6F008C0
:10136300A3E6F008A3E6F008A3E6F022E70947099D
:10137300C3134709336002E733F422E0F608A3E01E
:10138300F608A3E0F608A3E0F622E6084608C3132E
:101393004608336002E633F422800100E9F874FF63
:1013A30028F90470F622CAC0E0E6F0A308DAFAD0FE
:1013B300E0FA22E0F8A3E0F9A3E0FAA3E0FB22E8D5
:1013C300F0A3E9F0A3EAF0A3EBF022EAF0A3EBF039
:1013D300A3ECF0A3EDF022E0FAA3E0FBA3E0FCA36F
:1013E300E0FD22E5C754F84401F5C7790122252120
:1013F300F582E43522F58322E62618461846184678
:1014030022C2AF75D69F02000022E727194719476A
:1014130019472212108B4ADA0212108B97DA021242
:10142300108B1FDB0212108BDADB0212108B3DDCF8
:101433000212108B81DC0212108B1BDD0212108B47
:1014430099DD0212108BCCDD0212108BDADE021250
:10145300108BFADE0212108B4EDF0212108B36E075
:101463000212108B38E20212108BDAE20212108B96
:101473002AE50212108BAEE50212108BB3E80212BA
:10148300108BE7EA0212108B1FEB0212108B7EEC1B
:101493000212108B88EC0212108BD7EC0212108B05
:1014A300A9EE0212108B00800512108B34800512F6
:1014B300108B87800512108B8A810512108B63EFC6
:1014C3000412108BC6EF0412108B08F00412108B59
:1014D3002AF00412108B05F10412108B74F104121C
:1014E300108BA9F10412108B3EF00212108BBAF08C
:1014F3000212108BEDF00212108B1BF10212108BF3
:1015030059F10212108B94F30212108BB3F30212EF
:10151300108BF8F30212108B8EF40212108BDAF494
:101523000212108B6EF50212108B46F60212108B0C
:10153300A2F60212108B00F70212108B7DF7021233
:10154300108BB3F70212108BFEF70212108B24F8E4
:101553000212108BB4F80212108B4BF90212108B8B
:1015630097F90212108BC8F90212108BFFF90212BD
:10157300108B85FB0212108B4FFC0212108B1FFD88
:101583000212108B399E0412108B439E0412108B8F
:10159300B59E0412108BC09E0412108BCB9E0412B6
:1015A300108BE69E0412108BF59E0412108B2A9F5B
:1015B3000412108B529F0412108B7A9F0412108B0B
:1015C300A99F0412108BA6A00412108BF3A004127F
:1015D300108B08A10412108B9AA10412108BE9A19D
:1015E3000412108B15A20412108B3AA30412108B51
:1015F30007A50412108B97DD0412108BC3DD0412B0
:10160300108BE3DD0412108B0ADE0412108B51DF02
:101613000412108B84DF0412108B42E00412108B2F
:10162300DCE00412108BD08F0512108BD58F0512BE
:10163300108B08900512108BCBF10412108B92F2D1
:101643000412108BA4F20412108B1FF30412108BDC
:1016530062890512108B73890512108B118A05128A
:10166300108B1C8A0512108B348A0512108BF8FF1D
:101673000112108BEBFF0312108B438A0512108BA0
:10168300538A0512108B688A0512108B1C8B051266
:10169300108BDAFE0412108B5DFF0412108BC3FF54
:1016A3000412108BD0FC0412108BE4FC0412108B78
:1016B3004BFD0412108B94FD0412108BBCFD04121D
:1016C300108BE0FD0412108B03FE0412108B3BFE03
:1016D3000412108B63FE0412108B9EFE0412108BF7
:1016E300A2840512108B29850512108B3E850512E5
:1016F300108B83850512108BC9850512108BE0852D
:101703000512108BC0D20412108BCED20412108B90
:1017130047D30412108B1FD40412108BE2D504128A
:10172300108B31D60412108B6FD60412108BF87FF6
:101733000012108BC6FA0412108BFEFA0412108BDF
:1017430049FC0412108BCDFC0412108BE9BC04126B
:10175300108B15BD0412108B59BF0412108B99BF47
:101763000412108BD9BF0412108BEDBF0412108B1F
:1017730006C00412108BF8C00412108B9DC1041212
:10178300108BB1C10412108BE4810512108B0882F7
:101793000512108B21820512108B53820512108BB8
:1017A30083820512108BB0820512108BBA82051248
:1017B300108B1C830512108B2B830512108B358322
:1017C3000512108B42830512108BBEEC0412108B92
:1017D300DEEC0412108B1DED0412108B38ED041295
:1017E300108B57ED0412108BBDED0412108BC6ED58
:1017F3000412108B23EE0412108B32EE0412108BA2
:1018030056EE0412108B17EF0412108B24EF041200
:10181300108B35EF0412108B158D0512108B5D8D17
:101823000512108B898D0512108B38B80412108B9A
:1018330092B90412108BA0B90412108BB3B904121D
:10184300108BC8B90412108BDDB90412108BF0B9D8
:101853000412108B64BA0412108BC9BA0412108BD1
:1018630051BB0412108BCDBB0412108B91BC04121C
:10187300108BA1BC0412108BB0BC0412108B7C8C97
:101883000512108BA08C0512108BC88C0512108BBF
:10189300F08C0512108B30F40412108B57F40412E1
:1018A300108B75F40412108BE8F40412108BEBE91F
:1018B3000412108B04EA0412108B10EA0412108B2A
:1018C30024EA0412108B42EA0412108B4CEA04122D
:1018D300108B56EA0412108B69EA0412108BEFEA9C
:1018E3000412108B64EB0412108B93EB0412108B15
:1018F300E1EB0412108B30EC0412108B4BEC04124E
:10190300108B55EC0412108B66EC0412108BA9ECAF
:101913000412108B6A8E0512108BB58E0512108B74
:10192300AAA70412108BD4A70412108BF1A70412D8
:10193300108B04A80412108B1AA80412108B78A819
:101943000412108BB0A80412108BA4AC0412108BD9
:10195300E9AD0412108B1CAE0412108B7FAE04127F
:10196300108BDFAF0412108B07B00412108B1CB066
:101973000412108B2CB00412108B70B00412108B55
:10198300CBB00412108BDBB00412108B328705121C
:10199300108B4C870512108B74870512108B8D8763
:1019A3000512108BB1870512108BCF870512108B90
:1019B300E6870512108B14880512108B2F880512E9
:1019C300108B228B0512108B668B0512108B12DA8B
:1019D3000412108B22DA0412108B27DB0412108BF3
:1019E30059DB0412108B89DB0412108BACDB04125D
:1019F300108BC3DB0412108BFDDB0412108B62DC33
:101A03000412108BA4DC0412108BE3DC0412108B81
:101A130014DD0412108B3FDD0412108B4C8305126E
:101A2300108B5E830512108B72840512108B7584E4
:101A33000512108BD3FE0112108B09FF0112108BBC
:101A43001FFF0112108B61FF0112108B71FF011236
:101A5300108BB5FF0112108BBFFF0112108B0BB15E
:101A63000412108B4EB10412108BB3B10412108BFD
:101A7300D0B10412108B72B20412108B7BB2041219
:101A8300108BC0B20412108BE9B20412108BF6B2A1
:101A93000412108B71B30412108BFCB30412108B5D
:101AA30041B40412108B8CB40412108BF1B40412E1
:101AB300108B14B50412108B85B50412108BDAB594
:101AC3000412108B15B60412108B4AB60412108B35
:101AD3005CB60412108B6EB60412108B8DB6041212
:101AE300108B96B60412108B49B70412108B8CB767
:101AF3000412108BCAB70412108B198F0512108BA6
:101B0300F2850512108B81F60412108BB7F60412BE
:101B1300108BFFF60412108B58F80412108BD1DBD4
:101B23000312108BEADC0312108B24DD0312108BDB
:101B3300D2DE0312108B00DF0312108B66E1031257
:101B4300108BA6E10312108B4AE30312108BDAE326
:101B53000312108B2EE40312108BD0E40312108BAC
:101B630012E50312108B54E50312108BB1E6031236
:101B7300108BFFE70312108B36EA0312108B64EA13
:101B83000312108B8BEA0312108B94EA0312108B4F
:101B9300EBEA0312108B86EB0312108B8EEE03120B
:101BA300108B15EF0312108BD48B0512108BEC8B5B
:101BB3000512108BF68B0512108B4A8C0512108BB5
:101BC300C5C10412108BDBC10412108B7CC204123A
:101BD300108BBBC20412108BD8C20412108B09C322
:101BE3000412108B56C30412108B89C30412108B7A
:101BF300C4C30412108BBFC50412108B27C6041272
:101C0300108B62880512108BC1880512108BFF8818
:101C13000512108B40890512108BC18E0512108B93
:101C230000800212108B0C800212108B6E80021245
:101C3300108B78800212108B09810212108B458160
:101C43000212108B35820212108B82820212108BC9
:101C530011830212108B47830212108BC28302126C
:101C6300108B91850212108B8B870212108B69885F
:101C73000212108B87890212108BCD8B0212108BEC
:101C8300108D0212108BBF8D0212108B5F92021205
:101C9300108B53930212108BF7930212108B1C9428
:101CA3000212108BB8940212108BCD940212108B77
:101CB300F1940212108B5F950212108B7C95021225
:101CC300108BA6950212108B3C970212108B5D9716
:101CD3000212108B03980212108B4B980212108B76
:101CE300A0980212108B40990212108BA499021231
:101CF300108B029A0212108BAB9A0212108B199B53
:101D03000212108B4C9B0212108BBA9B0212108B87
:101D1300F59C0212108B6B9E0212108B089F02120D
:101D2300108B46A10212108BAFA10212108BD9A106
:101D33000212108BF5A30212108B9CA60212108BB9
:101D4300C5A70212108B7D940412108B789604128F
:101D5300108BC0980412108B039A0412108B229BD1
:101D63000412108BC69B0412108BCA9D0412108B95
:101D7300DE9D0412108BFC9D0412108BE0FF0212F7
:101D8300108B82D60412108B3CD70412108BA2D76F
:101D93000412108BC3D70412108B94D80412108B27
:101DA3000DC70312108B3CC70312108BB4C7031269
:101DB300108BB7C80312108B13C90312108B8ACA76
:101DC3000312108BA6CA0312108BF8CA0312108BCE
:101DD3003BCB0312108B4ECB0312108BA0CB031201
:101DE300108B5BCC0312108BD5CC0312108BFFCC62
:101DF3000312108B37CD0312108BB3CE0312108B4B
:101E03008CCF0312108BD5D00312108BA8D10312E1
:101E1300108B30D20312108B78D20312108B92D214
:101E23000312108BD9D20312108BF9D20312108B29
:101E33008FD30312108B15D40312108B6FD403129C
:101E4300108BB3D40312108B44D70312108B67D8B3
:101E53000312108BA3D80312108B95D90312108B86
:101E6300BDD90312108BC0D90312108BCAD9031228
:101E7300108BDDD90312108B5CDA0312108B92DA0C
:101E83000312108BBEDA0312108BE5DA0312108BE8
:101E930009DB0312108B7ADB0312108B88DB03122E
:101EA300108BBBDB0312108B8C8D0512108B988D5E
:101EB3000512108BCC8D0512108BF5FF0112108BC0
:101EC300F3B00312108B16B10312108B5CB2031222
:101ED300108BA5B20312108B0DB30312108B6BB3CF
:101EE3000312108B6EB30312108BBAB30312108B51
:101EF3002DB40312108BB5B40312108BB8B40312B4
:101F0300108BB6900412108B83B50312108B66B935
:101F13000312108BFFBA0312108B5DBB0312108BDD
:101F23001DDA0212108B11C00312108B80C1031231
:101F3300108B1EC20312108B29C30312108B7AC598
:101F43000312108B64EF0312108B0EF00312108B2D
:101F530074F00312108B8DF00312108B09F103122E
:101F6300108B5FF10312108BAFF10312108B16F27B
:101F73000312108B8FF30312108BBDF40312108B1B
:101F830042F50312108B21D30212108BF1F70312C7
:101F9300108B9AF80312108B5CF90312108B05FB5C
:101FA3000312108BADFC0312108B5EFD0312108B1A
:101FB30076FE0312108B00800312108B74800312C1
:101FC300108BBC800312108B00810312108B49818C
:101FD3000312108B93810312108BCB810312108B8E
:101FE30049820312108BA3820312108BF78303120F
:101FF300108B88840312108BE0840312108BFA84F5
:102003000312108B22850312108B7A850312108B17
:10201300E9870312108B08880312108BEC880312D4
:10202300108B1C8A0312108B998A0312108BE88A77
:102033000312108B498B0312108BEF8B0312108B3F
:10204300BD8D0312108BBD8E0312108B3B900312B8
:10205300108B1C920312108B82940312108B3296F6
:102063000312108B02970312108B70970312108BBD
:1020730087970312108B7F980312108B6F990312AB
:10208300108BDA990312108B34E40412108B80E561
:102093000412108B3DE60412108BA1E60412108B80
:1020A3000EE10412108B29E10412108B6DE104126E
:1020B300108B93E10412108BB9E10412108BD1E160
:1020C3000412108B34E20412108B49E20412108BB9
:1020D3006CE30412108B75E30412108B7EE304127D
:1020E300108B87E30412108B91E30412108B34C618
:1020F3000412108B33CA0412108B38CA0412108BCB
:102103003ACA0412108B6DFE0212108BD7FF011214
:10211300108B15E70412108BD97E0012108B018EE1
:102123000512108BB7F80412108BBFFF0312108B2C
:10213300D5CE0412108B718F0512108B818F05126F
:10214300108BA1CA0412108BF2AB0212108B25ACB8
:102153000212108B91AC0212108B2CAD0212108B59
:10216300C9AD0212108B0EAE0212108B30AE0212EA
:10217300108B49AE0212108B6FAE0212108B91AE10
:102183000212108BCFAE0212108B13AF0212108B00
:1021930035AF0212108B97AF0212108B5EB0021292
:1021A300108B15B10212108B87B10212108B52B231
:1021B3000212108BA5B20212108B0BB30212108BFA
:1021C30045B30212108B97B30212108B05B402129F
:1021D300108B70B40212108B73B40212108BF4B410
:1021E3000212108B8BB50212108B0BB60212108BDE
:1021F3002AB60212108B8EB70212108B9BB70212F3
:10220300108BA7B80212108BB4B80212108BBDB892
:102213000212108B95BA0212108BAFBB0212108BF5
:1022230028BC0212108B9ABC0212108BBCBC021287
:10223300108B50BD0212108B24BF0212108BFBC2F5
:102243000212108B0FC30212108B1FC30212108BCA
:1022530029C30212108B32C30212108B3BC302122A
:10226300108B45C30212108B72C30212108B9BC3D7
:102273000212108BA6C30212108BCAC30212108B58
:10228300EEC30212108B58C40212108B9EC40212AA
:10229300108BBBC40212108B38C50212108B6FC592
:1022A3000212108BAEC50212108BFBC50212108BEB
:1022B30081C60212108B4FC80212108BD2C80212B1
:1022C300108BB6C90212108B1DCC0212108B76CC68
:1022D3000212108BC0CC0212108B1BCE0212108B79
:1022E30050CE0212108BA2CE0212108B57CF0212C5
:1022F300108B06D00212108B43D00212108BD8D051
:102303000212108B44D10212108B1C320012108B5C
:102313004E320012108B7C320012108B523400129A
:10232300108B32350012108B8A350012108BC53694
:102333000012108B11370012108B3A3A0012108BD7
:102343002D3D0012108B7D3E0012108B133F0012A7
:10235300108B1F3F0012108B513F0012108BD44083
:102363000012108B85420012108B19430012108B40
:102373005C430012108BDA430012108BF7430012F8
:10238300108B27440012108B5C440012108B2C45D9
:102393000012108BD5450012108B5B480012108B76
:1023A3007B490012108B664A0012108BE84A001218
:1023B300108B1C4F0012108B594F0012108BB14F12
:1023C3000012108BE44F0012108B4E500012108B32
:1023D30084500012108B0F510012108B67510012A2
:1023E300108B3E520012108BF7520012108B925337
:1023F3000012108B9A560012108BB6570012108BD6
:10240300595B0012108B4D5C0012108B505C001254
:10241300108B7F5C0012108B855E0012108B5E5F49
:102423000012108BA15F0012108BF7600012108B4B
:1024330036610012108BBF610012108BF361001222
:10244300108BB8620012108BD0640012108B4165A0
:102453000012108B81650012108B0F660012108B17
:1024630031670012108BF3670012108BFA690012A8
:10247300108B126A0012108B266A0012108B5E6A90
:102483000012108B8C6A0012108B0B6C0012108BD5
:10249300306D0012108B8D6D0012108B3F6E001289
:1024A300108B666E0012108B2D6F0012108BC56F90
:1024B3000012108BEB710012108B20720012108B24
:1024C30083720012108BB2730012108B5A740012B5
:1024D300108B8B740012108BA3740012108B327547
:1024E3000012108BE6770012108BBE790012108B4E
:1024F300DA790012108BF6790012108BC47A00126D
:10250300108BB77E0012108BDC890112108B0E8AA0
:102513000112108BFD8D0112108B498E0112108B4D
:102523008F8E0112108B318F0112108B8D8F011240
:10253300108BD28F0112108B19910112108B2D92D7
:102543000112108B1C960112108BA0960112108B96
:10255300AD970112108B09980112108BF999011292
:10256300108B6E9A0112108B789A0112108B859A38
:102573000112108BB09A0112108B979B0112108BD2
:10258300419C0112108BBF9C0112108BDF9C011226
:10259300108B089D0112108B2A9D0112108B8A9FAC
:1025A3000112108B50A00112108B95A00112108BF9
:1025B30012A10112108BC3A10112108BF5A10112FC
:1025C300108B3BA20112108B77A20112108BC7A2B2
:1025D3000112108B1BA30112108B71A30112108B1C
:1025E300BDA30112108B2AA40112108BA5A4011202
:1025F300108B70A60112108B70A70112108B95A877
:102603000112108BD4AB0112108BE7AE0112108BA9
:10261300A4AF0112108BE8AF0112108B98B1011215
:10262300108BACB10112108BB6B10112108BC0B17B
:102633000112108BCCB10112108BE8B10112108B77
:1026430093B20112108BD2B20112108BDCB20112C1
:10265300108BE6B20112108B56B30112108BA1B38B
:102663000112108BB6B40112108B12B50112108B2C
:1026730093B50112108B52B60112108B5BB7011286
:10268300108B8FB80112108B7DB90112108B95B985
:102693000112108BF0B90112108B0EBA0112108BBC
:1026A30056BA0112108B7DBA0112108B18BB01129E
:1026B300108BDEBB0112108B70BC0112108BEABCB5
:1026C3000112108B04BE0112108BB1BE0112108BCC
:1026D300D9BF0112108B29C00112108B8DC00112BA
:1026E300108BEFC00112108B1DC10112108B41C161
:1026F3000112108B76C10112108BA7C10112108B2E
:10270300DAC10112108BFAC10112108B62C20112DD
:10271300108B56C30112108BB1C30112108BDAC395
:102723000112108B62C40112108BE5C40112108BCD
:1027330010C50112108BF5C50112108BBEF30112E7
:10274300108BF6F30112108B17F40112108B59F44E
:102753000112108BBBF40112108BC5F40112108B04
:10276300D5F40112108B10F50112108BF0F8011241
:10277300108BDDFA0112108BC3FC0112108B5AFD72
:102783000112108BFCFD0112108BF7C70112108B85
:1027930075C80112108BD1C80112108B1CC901120C
:1027A300108B37C90112108B62C90112108B7FC9BC
:1027B3000112108B8BC90112108B22CB0112108BCB
:1027C3003BCB0112108BC0CB0112108BD3CB011268
:1027D300108BF2CB0112108B96CC0112108B17CEFB
:1027E3000112108BCACF0112108B60D00112108B13
:1027F30063D00112108BD3D00112108BF1D00112D0
:10280300108B88D10112108BD0D10112108BD3D130
:102813000112108B99D20112108B06D30112108B67
:102823002CD30112108BB7D30112108BD5D3011205
:10283300108B1BD40112108BCFD40112108B19D51E
:102843000112108B48D50112108BA5D50112108BE4
:10285300DAD50112108B06D60112108B14D6011291
:10286300108B61D60112108BD1D60112108B1AD79F
:102873000112108B66D70112108B92D70112108BA5
:102883009DD70112108BBBD70112108BA6D8011252
:10289300108BB0D80112108BEBD80112108BFBD820
:1028A3000112108B04D90112108B58D90112108B0D
:1028B3006CD90112108B9BDA0112108BB2DA011260
:1028C300108BC7DA0112108B55DB0112108B9ADBC8
:1028D3000112108B26DC0112108B31DC0112108BDC
:1028E30073DD0112108B8EDD0112108BDADD011204
:1028F300108B49DE0112108B82DE0112108B9CDEDD
:102903000112108BDEDE0112108BAEE10112108B6F
:102913005BE20112108BC8E20112108B08E5011271
:10292300108B20E50112108B23E50112108B2FE58C
:102933000112108B43E50112108B4BE50112108B32
:102943007EE50112108B80E60112108B07E701125E
:10295300108B77E70112108BF9E70112108BBAE89D
:102963000112108BD9E80112108B7AE90112108B36
:10297300D7E90112108BDAE90112108B07EA011271
:10298300108B1CEA0112108B90EA0112108BDFEB03
:102993000112108BE5EC0112108B70ED0112108BFC
:1029A3008BEE0112108B53EF0112108B84EF011287
:1029B300108BA7EF0112108BB0EF0112108BDFEF1A
:1029C3000112108B6FF00112108B25F10112108B85
:1029D3009AF10112108B41F20112108BB6F201121F
:1029E300108BEDF20112108B2BF30112108B61F39C
:1029F3000112108B86D90212108BAC900412108B2B
:102A030056900412108B42900412108BA18F041263
:102A1300108BA58E0412108BCF8D0412108BD88BC4
:102A23000412108B2B8B0412108BBD8A0412108B93
:102A3300C3B00312108BB9B00312108B27D7021245
:102A4300108BD8BE0312108B4EB00312108BA2AEA4
:102A53000312108B7ED20212108B3DD20212108B06
:102A630060AE0312108B80AD0312108B6AAD03129C
:102A7300108B2BAD0312108B86AC0312108B80A925
:102A83000312108B6EA70312108B3BA70312108B3C
:102A9300D6A60312108B69A60312108B28A6031265
:102AA300108B61A50312108BFCA40312108BA7A437
:102AB3000312108B4AA40312108B21A30312108B51
:102AC300BEA20312108B08A20312108B03A20312DF
:102AD300108BF7A10312108BAA9E0312108B849EF6
:102AE3000312108B1ED20212108BEBD10212108B29
:102AF300D6D10212108BABD10212108B3794041271
:102B0300108BFF930412108BA8930412108B299E31
:102B13000312108BD49D0312108B959D0312108BFF
:102B2300829D0312108B11920412108B779D031256
:102B3300108B539D0312108B629B0312108BE19A2F
:102B43000312108BE0D30212108B9D9A0312108B89
:102B530048F70312108B719A0312108B5F8A0412C9
:102B6300108B218A0412108BF4890412108BC089F4
:102B73000412108B5F890412108B47890412108B87
:102B830023890412108BEC850412108BB883041272
:102B9300108B9F810412108B2E810412108BDD8009
:102BA3000412108B97800412108B00800412108B78
:102BB30053910412108B42B50300000080FB000008
:102BC30022E4738F000100191887000100171835DC
:102BD300000400E01725000200E41726000200E6C7
:102BE3001727000200E81728000100F21729000147
:102BF30000F3178400040048158600010068172AB3
:102C0300000100F4172B000100F5172C000100F957
:102C1300172D00080054152E000100FA172F00018C
:102C230000FB1730000100FC1731000100FD1732D3
:102C33000001005C15330001005D1534000100FE46
:102C430017360001005E1538000100FF1739000137
:102C530000F817830002001518630001006A156469
:102C6300000100F61765000100F7176D0001006B06
:102C730015710008004C156600010014184300018B
:102C83000005184400020006184500010008184614
:102C93000002000918470008006215480001000BF4
:102CA300184B0001000C18040001001818A10001C2
:102CB300001C18370001001B18880001001A183C7B
:102CC3000001005F153D0001000018490002000DDE
:102CD30018670001006C154D0002000F184E00012B
:102CE3000011184F00020012183E00010004185191
:102CF3000001006015520001000218530001000397
:102D030018540001006115000000000000000136A6
:102D13003601010001020100010301000104010663
:102D23000605020000070100340801000F09040131
:102D3300010D0100FF0E0800001702000019010039
:102D4300FF1A0100011B0100FE1C0100081D020007
:102D5300001F0100012001000121020000230100E6
:102D63000F240200002601000127010008280200A9
:102D7300FF2A0100072B0102402C0100002D010056
:102D8300012E0100012F0100FF30010B1D3108004E
:102D9300003A0100083B01000F3C0100013D010026
:102DA300FF3E04000042040000460400004A040001
:102DB300004E04000052040000560400005A0400B0
:102DC30000000000002001DB89000001002001DA7F
:102DD30089000002002001D789000003002001D6EA
:102DE300890000040042016088000005004201E1FF
:102DF300870000060042017287000007003001D9F6
:102E03008900000040420172870000FDFF2101D2CA
:102E130089010020002005701701002100200571A1
:102E23001701000002210572170004000021053775
:102E3300140204000029052F14030400002905319E
:102E43001403041000290533140304140028059502
:102E53001705040000210535140103710301030163
:102E6300030103010301032203020301031003000F
:102E730003000300030003000300030003420300F5
:102E8300032403060300030003040312032503239F
:102E93000325032303040304030003000300034483
:102EA30003000300032303000365032100350381AB
:102EB30003000305030003000300030003250323AA
:102EC300030101710101010101110101013101013D
:102ED3000101018001100161013B001400630173D2
:102EE300017201620143010001130106013D013535
:102EF30000040112010001000100010001040104AA
:102F030001330133013C0144013201360000010069
:102F13000165010001350081010001050182018382
:102F230001000103007100300160001100700031E5
:102F330002200350048000100061000000140063AD
:102F430000730072006200430000001300060000DB
:102F53000000000400120000000000000000000454
:102F6300000400370037003C02440000000000006A
:102F7300000000650000003500810000000500002E
:102F8300008300000003027102300160021102702D
:102F9300020102020202028002100261023A0041AF
:102FA30000630273027202620243020002130238D8
:102FB30000000200020402120200020002000200EA
:102FC3000204020402370037003C024402000239C3
:102FD30000000200026502000235028102000205C0
:102FE3000282028302000236000100060000000F85
:102FF3000000000000000000000000000003FFFFCD
:1030030000000403FFFF0000FFFF0FF4010005C4ED
:10301300040320000100000B00000000000000007A
:1030230003010F000000000000000000000000008A
:10303300000000000000000000000000000000008D
:103043000000000000041D2E1D0A1D3E1C101D342F
:103053001D101D401D161D3E1C101D341D1C1D3E44
:103063001C00000000221D3E1C00000000000000A8
:1030730000281D3E1C0000000000000000000000AE
:10308300000000000000000000000000000000003D
:10309300000000000000000000000000000000002D
:1030A3000000006E1F01006E1F0200E41E0280DE9E
:1030B3001E0300EA1E0400F01E0480F61E0500FC39
:1030C3001E0600081F31001A1F3300422A3400264F
:1030D3001FFFFF00000604000018053E140604014C
:1030E3000030053F1406041000212396170604112F
:1030F3000021239817030003000400080010001F99
:10310300003E007B00F600EC01D703AF075D0FB96B
:103113001E713D000007ECFDFDFDECDCDCCCBCAC1E
:10312300AC9C9C8C7C7C6C6C5C5C5C4C4C3C3C2C0C
:103133002C1C1C03EAF5E5D5D5C5B5A59595858564
:103143007575656555554545353525251515050AA7
:103153008025024A250556250750250C32250D3EAC
:1031630025FF000000160F00000B150B02000222C2
:103173000F3300000E0FD0D1D2D3D4D5D6D7D8D9A0
:10318300DADBDCDDDEDF5A6967426565416C6C6959
:10319300616E63653039303016181920231A1C1EEE
:1031A3003000034D4C4651181A250502000119162B
:1031B30018161618230300303017181921301B1D59
:1031C3001F30003C40423A3F3F392F47300C0E023C
:1031D3000B040B0A0708000F020402010101010995
:1031E300020004000021053B140600000010053D09
:1031F3001400BE040AE803000001002400E80303EE
:10320300001E09FF011304010F041E030A0C040529
:103213000828020C0508150310C082C0831214E8A5
:103223009015977422F0A37423F09015997428F0E5
:10323300A37423F090159B742EF0A37423F09015C0
:103243009D7434F0A37423F0025F5774F7120B0AD2
:1032530090158BE4F0E990158AF07C627D157A8CE9
:103263007B15121C1490180BE0901594F090159593
:10327300744CF0A374150241E474F0120B0AEAFED5
:10328300EBFF548070030233ED90158A124279707C
:10329300030233E6EA241B125AE4707CEA241F1269
:1032A3005AE464137002A3E0706E8A828B83123433
:1032B3003B9015A5125076750A00750B00800D1210
:1032C30040BA127156121B18AA0EAB0FEA4B604894
:1032D3008A828B83E0650C7004A3E0650D702C8AF1
:1032E300828B83A3A3A3A3E0F50EA3E0F50FE50A66
:1032F300450B8A828B83A3A3A3A360C31243BC851C
:103303000A82850B83A3A3A3A380B78A0A8B0B8AA4
:10331300828B8312507280B4E508242A125AE4FC8B
:10332300E5082402F8E43509F9E8FAE9FB9015A564
:10333300123522A3A3E06402703C8A828B8312506D
:1033430076800B88828983A3A3A3A31243BCE84995
:10335300601F88828983E06A7003A3E06B70E4884E
:10336300828983A3A3E06C70DA901811125E148033
:103373006BECF912235E850882850983E064017092
:103383004FE50824181234241210E41266FE120FBB
:1033930003E50824121234241210E4E50812426DE6
:1033A3001210E0E508240B126702120F07E5082448
:1033B3001712420AE5082402FCE43509FDE5082456
:1033C30019FAE43509FB122B92740A1210F3800CDC
:1033D300E064027007AA08AB0912243CAA08AB09EF
:1033E300121A82EEFAEF6480802DEA5402600C9088
:1033F300186C7401F0EA6402FA8023EA5408601A34
:10340300122358EA4B700B9015A71265D97A08124C
:103413003431EE6408FAEFFB80047A007B00026D1E
:1034230088F582E43509F583E0F50A780A22FB90F2
:10343300158AE0F9121BE422A3A3E0F50CA3E0F53F
:103443000D227B0090158AE0F9121BD874042274B4
:10345300F4120B0A8A088B098A828B83A3A3A31213
:103463004E6E12421538F583E02409FA126D20706E
:10347300030235158A828B837402124EE385088218
:10348300850983123522E8F0A3E912699A8A828BAF
:1034930083A3A3A3A3A3A3A3A3F0E5082403F8E4AE
:1034A30035091235171242153AF583E08E828B8364
:1034B300A3A3A3A3F0EE2409FAE43FFB8E828F8338
:1034C300A3A31260C6F5838882E0A2E58E828F8370
:1034D300A3A3A3A3A3500474018001E4F0E508248B
:1034E30003F5828983125076EA1255F73BF583126E
:1034F3006CE71210DC1242143B1261B88E828F8388
:10350300A3A3127E961210F3EEFAEFFB90158A1224
:103513006D6D8016F98882F583E0FAA3E0CA221262
:103523005213A3A32274021210F37F04020E387401
:10353300F2120B0A8A088B09ECFAEDFB740E1213D4
:10354300F1E0FC12151E8A0C8B0DAE0CAF0DEA4F89
:103553006030AC08AD0912150CE96026AC08AD0962
:10356300EEFAEFFB121512E970148E828F83124369
:10357300A9FAEFFB121506AA08AB09121536790052
:10358300800279B402516274F0120B0A74F61211BC
:1035930087EAFEEBFF8C088D09750FB385218285C1
:1035A3002283E4F0750E008002050E903212E4933C
:1035B300F8E50EC39840030236B1AA0E7B0012153C
:1035C3005A8A0A8B0BEA4B60E08A828B83A3A3128D
:1035D30036B828F0F8C3EE98EF940050CC7C157DF4
:1035E300007900AA08AB09121A6A850A82850B833F
:1035F300A3A3A3A3127193E0F8EEC3982925E0F8DF
:10360300E433F9E50A28F582E50B39F583A3A3A38F
:10361300A3A3A312421FA3125C3B8A0C8B0DAC0C19
:10362300AD0DAA08AB09121C14850A82850B83A36E
:10363300E06401700A1266FE740112423180447420
:1036430001121151850A82850B831250741215429F
:10365300E9603D74091213F1E0C0E01266FED0E0A8
:10366300F074091213F1E064037013740112115121
:10367300E508240BFAE43509FB121C1480127401CB
:103683001213F11243BCE508125C2135091271547F
:10369300850A82850B8312670A124231A3A3E0C015
:1036A300E0E5082414126702D0E0F0750F00A90FBB
:1036B300740A026D85A3A3A3E0F885218285228382
:1036C300E02274F7120B0AE9FE8A828B83A3A3A379
:1036D300A3A3A3E0540860338A828B83A3A3A3A389
:1036E300A3A3E0540260218A828B83A3A3A3A3A391
:1036F300A3A3A3A3E06406600F74E96E600A74CD0C
:103703006E600574F06E7003122340024A6174F018
:10371300120B0A74EF121187740F1213F11264BDA6
:1037230074081213F1E9F0ECFEEDFF74051213F1C6
:10373300124829124A4DA3E0F912152A74061213EE
:10374300F11264BD74061213F11256887003023924
:10375300CC124259E0FA74061213F1E0F9122280F6
:10376300123A2CF8A3E0F9E84970030239CCEE24AD
:1037730003F50AE43FF50BEE2406F508E43FF509EB
:103783007C00850882F583125076850A82850B8337
:10379300E0F912153074031213F11264BD850A8225
:1037A300850B83E0C0E0852182852283123A25D0F0
:1037B300E012579DF98521828522831240C112525E
:1037C300EF1236BBFAA3E0CA2407F582E43AF58385
:1037D300E8F0A3E41264C82406F582E438F583E430
:1037E300127160124E621210DCEE1242153F12612A
:1037F300B874031213F1124E6E2409127E90121044
:10380300F374291213F112718D12351C1257B03A49
:10381300127154742B1213F1E0C0E08521828522CA
:103823008312564FD0E0F074021213F1E4F07425C2
:103833001213F1780812137E02392374031213F161
:103843001261808882F583123A14A3A3A3125C4603
:10385300FB121548850E82850F83A3EAF0A3EBF0D4
:1038630074031213F1123A25A3123A14125E55A2ED
:10387300E6500F850E82850F83A3A3A3A3A3E0D2F3
:10388300E1F074051213F1E0706B850E82850F83EE
:10389300A31243BC9015E5E0687003A3E06970557B
:1038A300850E82850F83A3A3A31241F4750C0078C0
:1038B3000C1210E478081210D874291213F1E0F5F1
:1038C3000C780C1210E474271213F1120F079015E1
:1038D300F2120F07790074191213F11250461224D1
:1038E30084740A1210F3850E82850F83A3A3A3A306
:1038F300A3E04405F074021213F1E004FC8E828FFE
:10390300831250708E828F83A3A3A3E0F912153024
:1039130074031213F11264BD74021213F1E004F084
:1039230074031213F1125688606774021213F1E0E4
:10393300FA74061213F11243BCC3EA98E499505186
:1039430074021213F1123CFE852182852283E02842
:10395300F8A3E039F9E8240FF50EE439F50F850EE5
:1039630082F583E4F074031213F1123A1F640160C9
:103973000302383E74051213F17401126D73F0746F
:10398300031213F1125F47123D21E8F0A3E9023855
:1039930062852182852283125076122286852182B6
:1039A300852283120F0774261213F1E0FD7425128A
:1039B30013F1E0FC740A1213F1E0F9EEFAEFFB12D3
:1039C300233A74021210F380438E828F83A3A3A33E
:1039D300E0C0E0740C1213F1D0E0F0126BDCE0C035
:1039E300E0740D1213F1D0E0F074061213F11256C5
:1039F300887009740E1213F174B98007740E1213D0
:103A0300F17410F0740912114912247E7411026DBD
:103A130085E0850E82850F83A3A3A322E012577549
:103A2300E022E0125775A3A322852182852283EA2F
:103A3300F0A3EB1256912274F0120B0A74E11211E7
:103A43008774041213F1E9F074031213F1ECF074A8
:103A5300021213F1EDF08A0E8B0F742F1213F11271
:103A6300343DAA0CFB12227474011213F1E9F0AA7B
:103A73000CAB0D12227A74011213F1E07003023CB5
:103A8300F9852182852283E480158E828F83A3A307
:103A9300A3A3A3E0D2E3F0852182852283E004126D
:103AA3006CCBF8852182852283E0C3984003023CD6
:103AB300F074011213F1E07003023CF0852182855A
:103AC3002283123CFEE50C28F8E50D39F9E8240FB2
:103AD300FEE439FF8E82F583A3A3A3A3A3E0A2E0B0
:103AE30040B5750800750A08750B0074021213F1CE
:103AF300E060037508207C087D00790074051211CD
:103B030049121A6A8E828F83E0603E901635E06414
:103B130001701AE508D2E3F508750B10123D0E1279
:103B230013F1E8F0A3E9125B3974FF807643080CC4
:103B3300750A0C8E828F83A3123D19127156740578
:103B43001213F174FFF0A3805A74041213F1E060AE
:103B530009E508D2E6F508750A0A8E828F83A3E089
:103B630064FE7003A3E0F4703074121213F1740452
:103B7300126728F8741D1213F1E8124EE37412123F
:103B830011491221A27D007C00790074151213F1F2
:103B9300AA82AB83121F56800B123D0E1213F1E85B
:103BA300F0A3E9F074071213F1E508F0124250C0D4
:103BB300E074091213F1D0E0F0740A1213F17401E6
:103BC300F0740512114912244274111213F1E060CA
:103BD30003023CCE740D1213F11257988E828F8319
:103BE300A3A3A3A3F0740D1213F1124EB1E50AF0CF
:103BF300A3E50BF074031213F1E0C0E0124E42D0C0
:103C0300E0125E556011901635E0C0E0740D12139A
:103C1300F1124E8CD0E0F0740D1213F11243BC85F7
:103C23000C82850D83A3A3A3A3A3123D07241C1217
:103C330064B7127170123D09125E0739126BFBC033
:103C4300E0124E29D0E0126CC0C0E0740D1213F1E3
:103C530012496FD0E01269C1C0E0740D1213F11262
:103C63004965D0E0F0740D1213F1123D19123D07AE
:103C7300242A1264B7850E82850F83A3A3A3A3A36B
:103C8300A3A3A3E01264B012423FC0E0124951D093
:103C9300E0F0740D1213F1125076850E82850F83B6
:103CA300126CD62428F582E43B1271541242481256
:103CB3006CE71210DC1261B1EA1264493B127E9484
:103CC3001210F374051211491224488E828F83A3B4
:103CD300A3A3A3A3E0D2E0F074111213F1E06003F5
:103CE300023A8D74011213F1E014023A997900AA91
:103CF3000CAB0D122346741F026D85E075F007A40B
:103D0300F8A9F022A3A312507AE8228E828F83A30C
:103D13001243C0740522E0123D21A3A3A322F8A3FA
:103D2300E0F9850E82850F83A32274F0120B0A74C7
:103D3300E8121187E9852182852283F08A0E8B0F91
:103D43008A828B83A3A3A3A3A3A3A3A3E0F9122231
:103D53009E8A088B09EA4B7003023E0AE50E12564F
:103D63000B1242681241FF852182852283E06003A2
:103D7300023E0D7C04850E82850F83A3A3A3A3A318
:103D8300A3A3A3E0F91222A4EE4F607B8E828F835C
:103D9300A3A3A3A31243BC74071213F11265EE127B
:103DA30043BC74091213F1124F13C0E074111213C0
:103DB300F1D0E012699FA3A3A3A3A3A3A31243BCBF
:103DC300740F1213F112715674121213F1E4126D7F
:103DD3007BC8241FF582E438F58312617CC4131376
:103DE3005403FC70027C048E828F83E0F9780812FE
:103DF30010E0742059FD744059F9740312114912EB
:103E0300233A74021210F3026D837C08850E8285B7
:103E13000F83A3A3A3A3A3A3A3A3E0F91222A48BB9
:103E23000BEA4B7003023D8BEE4F60DB85218285ED
:103E33002283E0F50C780C1210E48508828509834F
:103E4300A3A3A3A3A3A3A3E0F50C780C1210E48A05
:103E5300828B83A3A3A3E0FB8A82850B831279B3AE
:103E63008A82850B83E0FA8E828F83A3A3E0F91203
:103E73002B9874021210F3023D8F74F7120B0A741D
:103E8300FA121187E9FE780179017F008003790036
:103E93000F1251F2E0FCEFC39C5026EF75F007A41C
:103EA300FC85F008AD08EA2CFCEB3DFD1247E1E090
:103EB300A2E050DA540C60D6E0A2E250D37800803E
:103EC300CF8A828B83A3A3A3A3A3A3E0703DE9A21C
:103ED300E0400574016E70338A828B83A3A3A3A38E
:103EE300A3A374011241D1E0C0E074031213F1D013
:103EF300E0124840E0C0E074041213F1D0E0F07423
:103F0300051213F1E812611B12247E7406024A5E45
:103F1300C082C0837901122346025F5774F4120BE7
:103F23000AEA4B90186C6019E4F08A088B09F50AC9
:103F3300F50B78081210D87A021234451210F38068
:103F43000A7401F07A027B0012343202352D74F0C8
:103F5300120B0A74F312118774031213F1E4F0A322
:103F6300F09015A51241FF74011213F1E4F0A312AE
:103F73004EE804F09015DFE0A2E350030240441240
:103F830041C574091213F11213C274091213F178A3
:103F93000812137E9015A77808121159740512138D
:103FA300F178081213601240C874051213F17808EF
:103FB30012132150077A017B000240B574051213D6
:103FC300F1780C12137E901810E0F509780C79083B
:103FD300120A9BA80CA90D901811E0C398E49950FC
:103FE30003E08001E8852182852283F0740912139E
:103FF300F1780812137EC008C009C00AC00B74050B
:104003001213F1780C12137E1240C8780C7908123F
:104013000A9BE4F50AF50BD00FD00ED00DD00C7827
:104023000C79081212199015A7780C1213608011DD
:104033001240BA127156EEFAEFFB121B18AE08AF1C
:1040430009EE4F60658E828F831236B8C398502D68
:10405300EE2403F8E43FF9E0FA88828983E0C39A07
:10406300F0602374031213F112452274011213F149
:10407300EEF0A3EF126609FEA3E0FF80C48E828FE9
:1040830083A3A3A3E4F08E828F83127E4D74011267
:1040930013F11256888E828F83A3A3A3A360911278
:1040A30065E21213F11240C1808974031213F112F5
:1040B3005076740D026D851243C09015A5221261CE
:1040C300A7A3A3A32290180F127E55E4F50AF50BBC
:1040D3002274F0120B0A8A088B09890A7800790086
:1040E3009015A51241FFFBEE4B601E088E828F8355
:1040F300A3A3A3A3125040601008E87001098E82A5
:104103008F831241FBEA4F70E3901812125076C36B
:10411300E89AE99B40030241B87A061241BBA80C16
:10412300A90DEA4970030241B88A828B83E508F03E
:10413300A3E5091241DAE50AF09018111251FA12B7
:1041430041D1A3E4F0A3F09015A5125040600D8E69
:10415300828F83A3A3A3A312715680179015A51270
:1041630071569015DFE0A2E340091241C59015A7EF
:104173001213C29015DFE0A2E3503A7A087B009055
:10418300158AE0F9121BEAEA4B4C4D702890180F80
:10419300E0F508A3E085080CF50DE4F50EF50F78BE
:1041A3000C1210D87A087B0090158AE0F9121BDEF6
:1041B30074041210F3026D887B00121B128A0C8B9D
:1041C3000D22121BFCEAF8EBF9ECFAEDFB2212418B
:1041D300D5221241DAA322F08A828B83A3A322E59C
:1041E30008F0024A61F08E828F83A3A3A3A3A3A343
:1041F30022125AF2A3A3F022A3A3A3A3E0FEA3E0F7
:10420300FF227F05020E38F582E43509F583E0F9D4
:1042130022EA124219222410F582E422124227A331
:10422300A3A3A3221243C4850882850983221242D1
:104233003522F0850A82850B83A3A322E50E241180
:10424300124265E022E50E240E12426522E50E2499
:1042530010124265E02212425D22EE1242193FF52E
:104263008322F582E4350FF58322240FF50AE43522
:1042730009F50B780A22E0F9121A948A088B09EAE5
:104283004B2274F2120B0A890B8A088B098A828BE0
:104293008312507612236AEA4B600479B8806A125B
:1042A3002376E9F890321BE493F9E8C39940047943
:1042B300B280567A151241BBAE0CAF0DEA4F7004B3
:1042C300791080458A828B83E4F0A31241DAE50BEF
:1042D300F0750A0078081210DC7C127D00EA2403D2
:1042E300126C921210F39015AB1256887008901549
:1042F300AB800C1243BC8882898312430F70F4EEA7
:10430300F0A3EFF0122388790002516212507AEA87
:104313004B8882898322C082C0839015AB80048C32
:10432300828D831279B4EC4D60288C828D83A3A394
:10433300E069600574FF6970E68C828D83A3A3A393
:10434300E06A7003A3E06B70D6EC2403FAE43DFB50
:1043530080047A007B00025F5774F7120B0AE9FDB1
:1043630074FE6D70047C0180027C009015AB8009A3
:104373006D70027C0188828983125688601F88824F
:104383008983A3A3A3E06A7003A3E06B70E7ECA2A5
:10439300E088828983A3A3E050D6F9800279FE02E4
:1043A3004A61EEF9800CA3A3127E55EE2274021229
:1043B30010F37F02020E38F5831243C0221243C466
:1043C30022E0F8A3E0F9221243C48E828F832212E3
:1043D30010F37F03020E38C082C08379009015ABBF
:1043E300800109E0FAA3E08A82F583E582458370C0
:1043F300F1025F5774F6120B0AE4F508F509780821
:104403001210E090321BE49375F013A4A9F0124547
:10441300171271B41210F3E9FE74096E70031223BC
:10442300820243A574F6120B0A74FE1211878521CA
:1044330082852283E4F0A3F0A821A92288088909B0
:1044430078081210E075080275090078081210E068
:10445300126E251210F30243B074F5120B0A74EBBB
:10446300121187852182852283E4F0A3F09015AB96
:1044730080748E828F83A3A3E0C0E074021213F1D1
:10448300D0E0125B39A982AA8389088A09750A00D8
:1044930078081210DC7C127D0074061213F112717D
:1044A300791210F3740212114188088909780812ED
:1044B30010E075081375090078081210E0740412EF
:1044C30013F112562B75F013A4F8AAF075F013E943
:1044D300124513126E2D1210F38521828522831249
:1044E30045228E828F831241FFEE4F7085A821A94A
:1044F300228808890978081210E0750802750900F6
:1045030078081210E0126E251210F374150243D2CC
:10451300A42AF9E82402FCE439FD7A427B0022E074
:104523002401F0A3E03400F02274F4120B0A74EBBC
:104533001211877E007F00A821A9228808890978A3
:10454300081210E07508028E0978081210E07C004A
:104553007D007A421271C01210F3E9706C8E0880EC
:10456300567402121141880A890B780A1210E075F9
:104573000A13750B00780A1210E0E50875F013A40E
:10458300F8AAF075F013E5091245131271C212105F
:10459300F3E9701B74031213F1AA82AB8374021242
:1045A30013F1E0F9122364E970050EEE70010F05B3
:1045B30008E508700205098521828522831243BC20
:1045C300C3E50898E509994098EEFAEFFB741502E4
:1045D300352A74F6120B0A8C828D83A3A312482EFC
:1045E300F0EA12644F3BF583E0C0E01247EBD0E002
:1045F300F0EA241DF582E43B1243BA1247CF124876
:1046030029F0A3F0EA241FF582E43BF5831241FF6E
:10461300EC1247C23DF583EEF0A3EFF01247C83B1F
:10462300F5831247F9A3A3A3A3A3A3EEF0A3EF1269
:1046330060AAFE8C828D8312483874035EFEC39495
:104643000340030247B5EE600874026E600302463E
:10465300DA8C828D83E0540CFE740C6E7003024777
:1046630019E0A2E4400D88828983E08C828D83A3C4
:1046730012484E74086E60030247191247D9740139
:10468300F08A828B83A3A3A3A3A3125AFF70148C73
:10469300828D83E0440C124840A3A31247F9EEF045
:1046A300A3EFF08C828D83E0A2E4402B8882124832
:1046B3000712481C500109F582124807A3A3A3A3BC
:1046C300A3A3F0A3EF1248488C828D83A3A3A3F086
:1046D300E82403F850010988828983E0C0E0EC24D0
:1046E30011F582E43DF583D0E01248388C828D8346
:1046F300E0A2E7507588828983E0FE8C828D831265
:10470300484E74FC5E700C8C828D83A3E05403646A
:1047130003701E0247B51247D9E4F0740C6E6003B0
:10472300024684888212480D12481C500109024631
:10473300A68C828D83A3E05403603288828983E050
:10474300C0E0EC1247F33DF583D0E012484F8C8272
:104753008D83E054036402701488828983E0C0E08F
:104763001247E1D0E012484F8003A3E4F0EC125566
:10477300F73D127154EC2410FEE43DFFEA241DF5CD
:1047830082E43BF583E0F5088E828F83E0C39825AE
:1047930008F508F0EA2417F8E43BF98882F583E08A
:1047A300C39508C0E01247CFD0E01260AAC39508B2
:1047B300500A1247CFE4F01247EBE4F00243B5246A
:1047C30015F582E422EA240DF582E422EC240DF5AA
:1047D30082E43DF58322EC1257B03DF58322EC24AD
:1047E30014F582E43DF58322EC1242193DF5832250
:1047F3002413F582E422E0FEA3E0FF8C828D83A3E1
:10480300A3A3A32212480DA3A3228983E0F508A33F
:10481300E0FFE5088C828D8322A3A3A3A3F0A3EF7B
:10482300F0E82402F82212482EA322E4F08C828DB1
:1048330083A3A3A322124856A882A983221241D597
:10484300A3A3A3A322124856A3E022A31248560807
:10485300A983221260B3A32274F4120B0A74F31215
:1048630011878A0A8B0BECFEEDFF8C82F583E054F3
:104873000CF508E0A2E75006E508D2E7F508E508DD
:10488300D2E1F508125AFF7006E508D2E4F508E014
:10489300A2E55006E508D2E5F5087C087D0079001D
:1048A300AA21AB22121A6A74021213F1E5081271DB
:1048B3005AC0E074031213F1D0E0124EE8E50AF097
:1048C300A3E50BF074051213F11269C61213F1E09C
:1048D300707774081213F1124E6E12609C381269CD
:1048E300E1C0E074081213F112496FD0E01269C1FC
:1048F300C0E074081213F1124965D0E0F074081295
:1049030013F112495BE0124E96124F171264B0EE88
:104913002411125ACBC0E0124951D0E0F0EE241416
:10492300125ACBC0E074081213F1124E6E2435F5FF
:1049330082E438F583D0E0124EBBC0E07408121352
:10494300F1124E72D0E012671A740D02352AE82470
:1049530032F582E439F583221243CAA3A3A3A3A3A6
:10496300A322124E82126BC038F58322124E822488
:1049730026F582E438F5832274F7120B0A7E008A47
:10498300828B83A3A3A3A3A3A3A3A3A3E064046031
:1049930003024A3D1257A8E06003024A3D12560A39
:1049A3003B1256867003024A3D88828983E0540392
:1049B3006003024A3DE81257B039F583E0FA8C826E
:1049C3008D83A3A3E0FBA3E0CB2411F582E43BF5A5
:1049D30083E06A706588828983A3A3A3A3A3A3A3A7
:1049E300A3A3124A41E06A7003A3E06B704C888270
:1049F3008983A3A3124A4DE0FFA3E0CF2406125AF2
:104A0300CB6A7003A3E06B703188828983A3A3E030
:104A1300F88C828D83A3A3E0F9A3E0F5838982A3B5
:104A2300A3E06860138C828D83A3A3A3E0F583893D
:104A330082E0540C640470027E01EEF98020124A75
:104A4300452212507E8C828D8322A3A3124A45A352
:104A5300A322740C1213F1E0F9740D1210F37F0109
:104A6300020E3874F6120B0A74FC121187EAFEEB7D
:104A7300FFECFAEDFB8C82F583A3E0540360169000
:104A830015A112568860597900EEFCEFFD1262A75A
:104A9300122BC4804B852182852283EEF0A3EFF095
:104AA30074021213F1124EDDAC21AD227AA07B23E6
:104AB3001225C88A088B09A808A909EA4960218A2E
:104AC300828B83A3A3A3A3A3A3A3A3A37406F07AB4
:104AD3000088828B83124E6E126470E0F9122526D1
:104AE30074040243B274F2120B0A74F3121187EACC
:104AF300FEEBFF8A82F583A3A3A3A3A3A3A3A3A38C
:104B0300A3E0F50A90186CE0700579BA024E267599
:104B13000801750900750C00750D007C087D00798E
:104B230000AA21AB22121A6A74051213F17401123E
:104B33004EF05404601274021213F1E0D2E6124EE6
:104B4300F054087003750803E05410600674404580
:104B530008F508E05408602274021213F1E044C01F
:104B6300124EF05420600A74031213F1E0D2E08075
:104B73000874031213F1E0D2E1F0EE2415125ACBBC
:104B8300124E567003740169700674084508F508DF
:104B93008E828F83A3A3A3A3A3A3A3A3E070161260
:104BA30026228521828522831264BD74021213F1A9
:104BB300E0D2E28030640F701074021213F1124ECF
:104BC300F874044508F508807F8E828F83A3A3A31E
:104BD300A3A3A3A3A3E064028E828F83700A12713E
:104BE3008DE8F0A3E9F08060A3A3A3A3A3A3A3A3E9
:104BF300E06403700DAC21AD22EEFAEFFB1223D675
:104C030080468E828F83A3A3A3A3A3A3A3A3E0645D
:104C1300017035901635E0601074021213F1124ED4
:104C2300F8750910750AFF801874021213F1E04435
:104C33000C124EE874FDF0A374FFF074044508F5FC
:104C4300088E828F8312343DEE2415125ACBA2E0D4
:104C5300503F74021213F1E0540C701B8E828F8349
:104C6300125076122022E9700579BB024E26740297
:104C73001213F1E0D2E5F0EE2415125ACBA2E05064
:104C83001074021213F1E0540C64047004E0D2E5D2
:104C9300F0EE2411125ACBC0E074041213F1D0E0E9
:104CA3001269C81213F1E06003024E1F7408121355
:104CB300F1124EB1E508F0A3E509F0124E4CE0C045
:104CC300E0124E42D0E0F0124E33E0C0E07408121E
:104CD30013F1124E6E1247F338F583D0E0124F17DB
:104CE30064017011901635E0C0E074081213F112DC
:104CF3004E8CD0E0F074081213F1124EAC124E3DFC
:104D0300FAE8241CF582E439F583EA124EE3EE2433
:104D130015FAE43FFB8A82F5831279B4E8125E0741
:104D230039F583124EDDEE241C125ACBC0E0124E2D
:104D330029D0E0125F4D124E56700374016970134F
:104D430074081213F1125798FAEE241D125ACBF974
:104D53001222AA8E828F83A3A3A3A3A3A3A3A3A395
:104D6300E0C0E074081213F112496FD0E0F0740848
:104D73001213F1124965E50AF074081213F1125681
:104D83002B2428F582E439F583E50CF0A3E50D1215
:104D93004EC3124E96125B441264B0EE124E3DC0E7
:104DA300E0E82433F582E439F583D0E0F0EE241B08
:104DB300125ACBC0E074081213F1124E72D0E0F015
:104DC300EE241A125ACBC0E074081213F1124E6E7D
:104DD3002432F582E438F583D0E0124EBB124E62E2
:104DE3001210DC126BC61279B4740B1213F1124E4B
:104DF3006E242F127E901210F3EE2415125ACB5408
:104E03004060129015C1125688600AAA21AB221283
:104E130062A7122BC4AA21AB22122448740C1213CA
:104E2300F1E0F902515DE82420F582E439F58322AB
:104E3300EE2419F582E43FF58322126BD5E022E8D4
:104E43002412F582E439F58322EE2418F582E43F37
:104E5300F583225480F8A3E05401F974806822F5A5
:104E630008A3E0F509750A00780822124E8222127F
:104E73004E822434F582E438F58322A3A3A3A3123C
:104E83004E8622E0F8A3E0C822124E821247C238AF
:104E9300F58322FAA3E0FBE8242AF582E439F583BB
:104EA300EAF0A3EB22A3A3A3A31243C0EE2212565C
:104EB3002F12560F39F58322F0EE2413125B4C2286
:104EC300F0EE240D125B4C22E0FC8A828B83E02CF3
:104ED300FCA3E03400FD8A828B83ECF0A3EDF02287
:104EE300F0A3E4F022F085218285228322F0EE24D0
:104EF30015125B4C22E0D2E3F0124F00228E828F18
:104F0300831243C4852182852283E8F0A3E9F0223A
:104F1300E8F0A3E9126603E02274F7120B0A8A820F
:104F23008B83A3E0640170047E6380027E648A82C3
:104F33008B83E060087905124F5024F3FE9015DD52
:104F4300E06007F9124F5024F2FE024A3D1224F0AA
:104F5300E9F8EEC3982274F6120B0A74FE12118755
:104F63008521828522831264BDE9FEECFAEDFB9074
:104F730005C21256886032A821A9228808890978B7
:104F8300081210E07D01740E1213F1E0FCEEF990AB
:104F930005C2126491122BC474021210F3EA4B601F
:104FA300047900800679B2800279B60243B074F7BF
:104FB300120B0AE9FE901597125688601F740912A6
:104FC30013F1E0F50878081210E4EEF99015971242
:104FD3006491122BC474011210F3800279B6024A51
:104FE3006174F7120B0A8908ECFEEDFF79B5E50849
:104FF300245E602014600624F86034803D9005C46C
:1050030012504060351271D1122BC48E828F8312DD
:1050130064BD80249015991279B4EC4D601CEEFCAC
:10502300EFFD901599126491122BC4E9F9800B904E
:105033001595125046121C147900024A6112507AD7
:10504300EA4B221279B8EEFAEFFB2274F7120B0A3D
:10505300E9FE79B574AB6E700B901595125076120C
:105063001C147900024A618E828F83A3A3A3A3A396
:10507300A3A3A312507A2212507E22E0FAA3E0FBEC
:105083002274F1120B0AEAFEEBFF8C0A8D0B7508F2
:10509300019015E5E06E7003A3E06F700C1251519F
:1050A300AA0AAB0B121C14805E122628EE6A700249
:1050B300EF6B7009AA0AAB0B12262E804AAC0AAD1D
:1050C3000BEEFAEFFB12217EE9F508901817E0705A
:1050D30036122ACCE97030E508702C9015B5E06ED5
:1050E3007003A3E06F7020EE4F601C750CAD750D5F
:1050F30015750E00780C1210DC7C087D00AA0AAB33
:105103000B12717D1210F3A908027AB074F2120B1C
:105113000AEAFEEBFF8C088D09750A01125151EE64
:10512300FAEFFB121C0EE9640170119015E51243AE
:10513300BC850882850983127156800EAC08AD09BF
:10514300EEFAEFFB122184E9F50AA90A801112266F
:105153001C8A0C8B0DAC0CAD0D22740D1210F37F59
:1051630006020E3874F6120B0AEAFEEBFF7A0D7B89
:1051730000121B12EA4B6062EE2424126E5AF0EE08
:105183002425126E5AA312521F126E60A3A3126B30
:10519300F31251FAF0EE1251E012520FE8F0A3E9C4
:1051A300125236125207127156EE1251E9126CB6B0
:1051B300A3A3A3A3F0EE2433125ACBC0E01251F2FF
:1051C300D0E01269E5125207A3A3A3E8F0A3E91202
:1051D300522EC0E01257A8D0E0F00243B5242AF5BE
:1051E30082E43FF58322242EF582E43FF58322EA0D
:1051F300125C213BF583221251FE22E08A828B83CB
:10520300A3A3A322126D15A3A3A3A32212521322B5
:105213001243C48A828B83A3A3A3A322F012522432
:1052230022EE2426F582E43FF58322F0EE243212A7
:105233005B4C22F0EE242C125B4C2274F4120B0A0A
:1052430074FE121187ECFEEDFFEC2416125ACB64A8
:10525300057010EC2406FCE43FFD1223D0E9700333
:105263000252EAAC21AD22126F0F1220288521824F
:10527300852283125688606B8E828F83E06401706F
:1052830058E875F009A4F8AAF075F009E9A42AF919
:10529300740C28F8740339F9E8FAE9FB8882F5837A
:1052A300780812137EEE12538C12132140278521A6
:1052B30082852283124EAC125AD91252EF78081209
:1052C300137E9088DE78081212A28A828B83780874
:1052D300121360800A79A28010EE240F12715079A4
:1052E30000800679A1800279C8023528124F0DEE9D
:1052F300126BE12274F2120B0A8A0C8B0DECFEED99
:10530300FFEC125AD9E4F0A3F09088D27808121374
:105313007EEC12538C12119D6067EC240E125AD24C
:10532300703478B39015DCE0702890160EE06401B9
:105333007020EC2411125ACBF91224D88B09A90935
:10534300EE12560B3F1264BBEA49600478008002F8
:1053530078A18808802EE060046402700A1223E2B8
:10536300E9F5087007801DE064037010EEFCEFFDA3
:10537300AA0CAB0D12204CE9F50880087508A18032
:10538300037508A3A908025162126BE1780822741D
:10539300F0120B0A74F5121187EAFEEBFFEA240AF6
:1053A300FCE43F8C82F583127E511256157403126E
:1053B30011518A828B831262B1E9700302547B74A8
:1053C300011211517403121149122028740112138E
:1053D300F1125688700302547BE875F009A4F8AA09
:1053E300F075F009E9A42AF9740828FC740339FD5F
:1053F300E508240E126702E4F0041213F11243BC11
:10540300E50812560B35091271548C828D831213E1
:10541300B6E50824121267021213C29088DE7808D8
:1054230012137E8C828D8378081212B58C828D8341
:10543300780C12137E9089BE780812137E780C794B
:1054430008120A9BE5084509450A450B702A7401B1
:105453001213F112562B75F009A4F8AAF075F0098E
:10546300E9A42AF9741028F582740339F5837401C9
:10547300F07A007B081256388E828F83A3A3A3A3EE
:10548300A3A3A3A3A3A3E02406FCA3E03400FD8EFF
:10549300828F831262B11269D3603EEE240A1255E1
:1054A300FD124EB17468124EE3E81255F739F583D5
:1054B3007402F09015C71213B68C828D831264AAFE
:1054C30012609C3CF5831213C29088DE7808121395
:1054D3007E9015C778081212B5125673705D901539
:1054E30095125623A3A3A3A3A3A3A3A3A3A31260C9
:1054F300D2121C0EE970101260909015951260A2E2
:1055030070051269D360348E828F83A3A3A3A3A3F0
:10551300A3A3A3A3A3125623125076122052E96029
:10552300118E828F83A3A3A3A3A3A312565FE4F0D8
:10553300A3F08E828F83125645E4F01256736003F4
:105543000255F28E828F83A3A3A3A3A3A3127E4D3E
:105553009015DCE060030255E790160EE0640160ED
:10556300030255E7750A3A750B00780A1210E074C6
:1055730002121141880A890B780A1210E012744C46
:105583001210F3E9705BE508240E1267027401122E
:10559300568DC0E0E5082411126702D0E0F0E5085B
:1055A300240F126702743A124EE39015C31213B616
:1055B300E50824121267021213C29088DE780812DB
:1055C300137E9015C378081212B59088DE780812FE
:1055D300137E9015C3780812119D700812563480FB
:1055E300031256151256737006125F9374A1F0746A
:1055F3000B026D85240EF582E422F8E43FF9E8FC02
:10560300E9FD8882F58322EA12560F22240FF582E0
:10561300E422E50812560F3509F583E4F0A3F022DE
:105623001279B88E828F832212562F221243C4E836
:10563300227A007B0290146CE0F9121ABE228A824D
:105643008B83A3A3A3A3A3A3A3A3A3A3125653220E
:10565300124E86240EF582E438F58322A3A3A3A376
:1056630012566722124E86240FF582E438F5832200
:105673008E828F83A3A3A3A3A3A3124E7E240FF52D
:1056830082E438F58312562F492212569122F0856F
:105693002182852283E02274F6120B0AEAFEEBFFD5
:1056A3007A237B00121B12EE240AF508E43FF50966
:1056B3008508821264BB7C237D007900121A6A85F7
:1056C3000882850983125688700302575BEEFAEF4E
:1056D300FB1223EE12567360748E828F8312578EE1
:1056E30064018E828F83A3A3A3A3A3A3700712577E
:1056F30084740E802112568870101269D3700B8E39
:10570300828F83A3A3E0A2E0500712577A740D801F
:105713000512577A74051269E55403640170071280
:1057230057627405800B9015DDE0C0E0125762D01C
:10573300E012579DF5838882125AF88508828509FD
:1057430083124E6E12644F38F583E9800E8508820A
:105753008509831265348003126477F00243B58EA2
:10576300828F83A3A3A3A3A3A3A3A3A3A312577467
:1057730022E0126496A3228E828F83A3A3A3A3A302
:10578300A3124E7E12645538F58322A3A3A3A3A3C9
:10579300A3A3A3A3A3125653E0221257A122126F6D
:1057A30024F8A3E022EA1257B03BF58322240CF538
:1057B30082E42274F1120B0A74E41211878A0C8BAF
:1057C3000D8C088D097A237B00121B128A0A8B0B1E
:1057D300AE0AAF0BEA4F7003025AB312645BE508DB
:1057E3002415125AE4687003A3E0698E828F8370D4
:1057F30004740280027401F0E508240DF8E435090D
:10580300F98882F583E0FAC3E49AFA95E0FB125A29
:10581300E02AFAA3E03BFB8E828F83A3A3A3A31208
:1058230060B98E828F83A3A3F0EE2420F582E43F38
:10583300F583E4F0EE2421F582E43FF583E4F0EE12
:10584300FAEFFB1224A2850882850983125AFF709E
:10585300098E828F83A3740580069015DD125AED9D
:10586300F0EE2417F50AE43FF50B8E828F83125A6C
:10587300F8E9850A82850B83F0EE2416F8E43FF9F4
:10588300E508240EFAE43509FB88828983124ECB9E
:10589300E5082410FAE43509FB850A82850B83E0C9
:1058A300FC88828983E0F88A828B83E0C398C39C57
:1058B300F8125B39F0EEFCEFFDAA0CAB0D1223E8F6
:1058C300E9F50B8E828F83E06402700612609012FA
:1058D3005ABDE50B6003025AAA750C00750D0090C2
:1058E3001817E064016005E06402703F125ACF604C
:1058F30008EE2421125AD270328E828F83A3A3A37F
:1059030012647D125B05EE2416125ACB125B2EFA3B
:10591300E439FB1241BDEA4B6011126CDF1210DC5B
:10592300125B13AA0C12717D1210F3EEFAEFFB1245
:1059330024AEE9F50B901817E064016008E06402F7
:105943006003025A9DE97003025A9DE50C450D70F0
:1059530003025AAA8003850E0B125ACF600BEE2462
:1059630021125AD26003025AA3850B0E850C0885B7
:105973000D09750A0078081210DC125B138E828FF2
:1059830083A3A3A3A3127E961210F3EE2420125A2C
:10599300CB600D125AD87468124EE3EE24208015A2
:1059A300EE2421125ACB6015125AD87403F0A37453
:1059B30001F0EE2421F582E43FF583E4F0EEFAEF03
:1059C300FB1224AEE9F50B70907C137D0079007413
:1059D30009121149121A6A741A1213F17401125B33
:1059E3004464687002A3E0704F8E828F8312565F07
:1059F300E0640560030259597C0879FF8E828F8326
:105A0300A3A3A3A3E0242A1260D5121AF4E9700316
:105A13000259597C087D0079FF7401121149121A49
:105A23006A74011211517A007B0079AB1223CA7494
:105A3300191213F174FC8015125AD8E06403700430
:105A4300A3E06401700874191213F174FFF0E4F514
:105A530008F50978081210E0740212115174131238
:105A630013F1AA82AB831265BA1210F385218285E2
:105A73002283E0602B740912114188088909780890
:105A83001210E075081375090078081210E07C0005
:105A93007D00126E2D1210F38006E50C450D600794
:105AA300AA0CAB0D121B18EEFAEFFB121B188003A6
:105AB300750B10A90B741C027AADEE2406FAE43FB1
:105AC300FB121C1422EE240C125B4C22EE24201237
:105AD3005B4C640122EE12560F3FF58322E5082446
:105AE3000EF582E43509F583E022125AF2A322E08F
:105AF3008E828F8322A3E0F91224F022E054036400
:105B03000122125B0922E0FAE82AF8E43400F922C0
:105B13008E828F83A3A3A3126481125B09EE2416E2
:105B2300125B4C125B2EFCE439FD22FAE82AF8E4FE
